:1000000002308A002A2A00002E3084008313000860
:10001000031917280630F800F701F70B0D28F80B25
:100020000C287B30F700F70B1328800B0A280800F8
:1000300035181C2808121D2808168316081283126A
:10004000B51824288812252888168316881283124A
:1000500035192C2808132D28081783160813831226
:10006000B51934288813352888178316881300009B
:1000700083128815831688110330F700F70B3E288A
:10008000831288118316881183120800B601831623
:10009000081600308312081A0130B6048316881639
:1000A00000308312881A0130F7000310F70D77082B
:1000B000B6048316081700308312081B0130F700BE
:1000C000F70DF70DFC30F7057708B604831688178F
:1000D00000308312881B0130F700F70DF70DF70D84
:1000E000F830F7057708B6043608F80008008316DC
:1000F000881188100811831288108316881008163A
:10010000881608178817831208158316081100002F
:100110008312881583168811000083124620780800
:10012000B500881183168811000083128815831684
:1001300088119A289B280000831246207808B40072
:1001400088118316881108128812081388138312E5
:10015000350EF700F030F70577083404F80078081A
:10016000B400B41FB52883167F28B208031DBA282F
:100170008810BB2888148316881000008312081189
:1001800083160811000083128811831688118312C8
:10019000330EB4000F30B4053408B500182033080E
:1001A0000F39B400B500182008002830A3000C3027
:1001B000A4000130A5000630A6008811831688111E
:1001C0008312881083168810831208118316081171
:1001D00008128812081388138811881008110F302C
:1001E0008312AE0004200130A2002208033C031C4D
:1001F00001290330B50018200530AE000420A20A02
:10020000F5280230B50018200530AE000420A20108
:100210002208033C031C182923302207840083137F
:100220000008A700B2012708B3007720A20A082916
:100230008A110A12572AA1112108831687008312F6
:1002400087112112210883168700831207162110B7
:1002500021088316870083120710A1122108831634
:10026000870083128716A23095001708CF392038EF
:100270009700A2309B001D08CF3920389D00080050
:10028000211021088316870083120710A11221086C
:100290008316870083128712A11121088316870015
:1002A00083128711211221088316870083120716F3
:1002B000A23095001708CF39203897009B0108001D
:1002C000A1112108831687008312871121122108AA
:1002D00083168700831207122110210883168700D6
:1002E00083120710A1122108831687008312871634
:1002F0009501A2309B001D08CF3920389D000800D1
:100300002F0B832986294030B0008729B0010130A6
:100310002E02B00730088038B100B2013108B300B6
:10032000772008002E08F8012D0203189A292D08BD
:10033000F700A629F7010830AF00AD0DF70D2E0824
:1003400077020318F700F80DAF0B9D2908002D0860
:10035000073A0319B5290B3A0319BA29063A0319C2
:10036000C229023A0319C829CD290130AE00AF00D5
:100370008021D229B2010130B30077200230AE00D3
:100380000420D2290130AE000230AF008021D229F2
:10039000B2011030B3007720D2290130B2002D080D
:1003A000B300772008002030281E3030A90027082D
:1003B000F700A71FE329F709F70A7708A7002D30F0
:1003C000A900A81728142708AD006430AE009221B8
:1003D0007708A70030307807AA002708AD000A3058
:1003E000AE00922130307707AC0030307807AB0098
:1003F0002908F70030302A020319022AA814A81B82
:100400002815162A2908AA002030A90030302B020E
:1004100003190E2A2814A81BA814162A031D281431
:10042000031D162A2A08AB002030AA0028191D2A0D
:10043000A818202A2818232A262A2908AD00A7212F
:100440002A08AD00A7212B08AD00A7212C08AD007C
:10045000A721080003081F398300FF30A10083167D
:100460001F149F141F159F1107309C0083138312C4
:100470002111210883168700831207110C30970081
:10048000A110210883168700831287100C309D006D
:100490000030F80006389200F93083169200FF30E1
:1004A00086000030880087008312A100D5281B2118
:1004B0000C30A200FA30AE000420A20B5A2A4021D0
:1004C0000330A200C830AE000420A20B622A1B2118
:1004D0000A30A200AA30AE000420A20B6A2A6021D2
:1004E0000430A2009130AE000420A20B722A1B211E
:1004F0000230A200FA30AE000420A20B7A2A831642
:10050000861683122010861A2014831686148312EE
:10051000A0108618A0148316061583122011061940
:100520002015831686158312A0118619A01583162F
:10053000061683122012061A20160130AE00AF00F4
:100540008021003020180130A2000030A0180130B6
:10055000A300003020190130A4000030A0190130A0
:10056000A5000030201A0130A6002208A70018308C
:10057000A800D3212308A7001830A800D3212408FD
:10058000A7001830A800D3212508A7001830A8001C
:10059000D3212608A7001830A800D321201DED2A5A
:1005A000201CDA2AA01CDA2A2019DA2AA019DA2A51
:1005B000201EED2A201CE42AA018E42A2019E42A8F
:1005C000A019E42A201EED2A2018EE2AA018EE2AEF
:1005D0002019EE2AA019EE2A201A1B21201CF92A24
:1005E0002018FA2AA018FA2A201DFA2AA01DFA2A91
:1005F000201A6021201EFF2AA019002B201E402156
:040600007F2A6300EA
:02400E00723FFF
:00000001FF
;PIC16F877A
;CRC=40A1  CREATED="02-Apr-23 12:28"
